:020000040000FA
:100000000C9463000C948B000C948B000C948B006C
:100010000C948B000C948B000C948B000C948B0034
:100020000C948B000C948B000C948B000C948B0024
:100030000C948B000C948B000C948B000C948B0014
:100040000C9411030C948B000C948B000C948B007B
:100050000C948B000C948B000C948B000C948B00F4
:100060000C948B000C948B000000000024002700EF
:100070002A0000000000250028002B0000000000DE
:1000800023002600290004040404040404040202DA
:100090000202020203030303030301020408102007
:1000A0004080010204081020010204081020000012
:1000B0000008000201000003040700000000000027
:1000C000000033059A0511241FBECFEFD8E0DEBF34
:1000D000CDBF12E0A0E0B1E0E2EDFFE002C005908C
:1000E0000D92AA39B107D9F724E0AAE9B2E001C01C
:1000F0001D92A33CB207E1F710E0C2E6D0E004C0D5
:100100002197FE010E94B106C136D107C9F70E94AE
:100110005B030C94DC070C940000E091AB04F091BD
:10012000AC048E179F0798F53091B104332361F02A
:10013000639FB0011124672F349FA0011124452F24
:10014000329F90011124232F3091B704E091B20423
:10015000F091B3045091B40435131AC0DC01AA0F16
:10016000BB1F8A0F9B1F8E0F9F1FE091B404E80FE7
:10017000F92FF11D6083E091B504E80FF92FF11D0F
:1001800040833091B604830F911DFC0120830895B4
:10019000880F991F880F991F8E0F9F1FFC01E30F77
:1001A000F11D1082E2CF833081F028F4813099F084
:1001B0008230A9F008958730A9F08830C9F08430E2
:1001C000B1F4809180008F7D03C0809180008F7793
:1001D00080938000089584B58F7784BD089584B599
:1001E0008F7DFBCF8091B0008F778093B000089512
:1001F0008091B0008F7DF9CFCF93DF93282F30E02F
:10020000F901E255FF4F8491F901E656FF4FD49171
:10021000F901EA57FF4FC491CC23A1F081110E944C
:10022000D300EC2FF0E0EE0FFF1FE458FF4FA59135
:10023000B491EC91ED2381E090E009F480E0DF914E
:10024000CF91089580E090E0FACF1F93CF93DF9392
:10025000282F30E0F901E255FF4F8491F901E6566D
:10026000FF4FD491F901EA57FF4FC491CC23A9F075
:10027000162F81110E94D300EC2FF0E0EE0FFF1F2C
:10028000EE58FF4FA591B4918FB7F894EC911111EE
:1002900008C0D095DE23DC938FBFDF91CF911F91F3
:1002A0000895DE2BF8CFCF93DF9390E0FC01E65664
:1002B000FF4F24918A579F4FFC0184918823D1F0EE
:1002C00090E0880F991FFC01E859FF4FA591B49168
:1002D000FC01EE58FF4FC591D49161110EC09FB73C
:1002E000F8948C91E22FE0958E238C932881E22361
:1002F000E8839FBFDF91CF9108958FB7F894EC9179
:10030000E22BEC938FBFF6CF3FB7F8948091A50412
:100310009091A604A091A704B091A80426B5A89B2B
:1003200005C02F3F19F00196A11DB11D3FBFBA2F87
:10033000A92F982F8827BC01CD01620F711D811D47
:10034000911D42E0660F771F881F991F4A95D1F7CC
:100350000895EF92FF920F931F93CF93DF93CDB742
:10036000DEB729970FB6F894DEBF0FBECDBF8CE97C
:10037000E82E82E0F82E10E000E0F70181919191E3
:100380007F0120E040E08130910581F02FEF4FEFB9
:10039000009709F4AAC020E048E78230910531F0C7
:1003A0008330910509F09CC020E04FEF60E0C80168
:1003B0000E948D000F5F1F4F0115F1E01F07E9F646
:1003C0008091B2049091B304892B09F47CC00E94FF
:1003D00084010091B8041091B9042091BA043091BD
:1003E000BB04601771078207930740F46093B80459
:1003F0007093B9048093BA049093BB040091B8043D
:100400001091B9042091BA043091BB04601B710BA8
:10041000820B930B6C32714081059105C0F2F89408
:100420008091AD049091AE049A838983E091B204E7
:10043000F091B304DF011196808189879091A9041E
:10044000E091BC04F091BD048091BE04992309F4AD
:100450004EC09081982B98879081809589238F83B7
:100460008F818C8388E08B8358856F8149853B81A0
:100470002C8189819A81508347FD252F3A952083CD
:10048000262F39F0441F00C000006083000000C028
:10049000F2CF38E04D9160830000019761F7F0934F
:1004A000BD04E093BC0449873B832C839A838983F2
:1004B00078940E9484016093B8047093B904809387
:1004C000BA049093BB0429960FB6F894DEBF0FBE12
:1004D000CDBFDF91CF911F910F91FF90EF900895C5
:1004E000049709F067CF20E040E06FEF60CF908184
:1004F000982B98879081809589238F838F818E8315
:1005000088E08D8358856F8149853D812E81898161
:100510009A81508347FD252F00C000C0208300C072
:1005200000C000C000C000C060830000262F3A95C4
:1005300041F0441F000000C000C000C000C000C067
:10054000E8CF38E04D9100C0608300C0019709F703
:10055000F093BD04E093BC0449873D832E83A6CF6E
:10056000CF93DF93ECE9F2E0DF011D921D9224E0CE
:10057000AC39B207D1F7ACE9B2E081E090E0819309
:10058000919311969C938E935F969C938E935E9716
:10059000EF01C252DE4F99838883909622E0EC3BB4
:1005A000F20769F724E030E030939B0220939A022F
:1005B00088E690E0909301018093000189E690E045
:1005C00090930301809302018AE690E090930501E5
:1005D000809304018BE690E09093070180930601DD
:1005E00082E090E090936D0380936C0383E090E051
:1005F00090936F0380936E039093710380937003C5
:10060000909373038093720330936903209368037C
:100610008FEF9FEF90939D0480939C04DF91CF9187
:1006200008951F920F920FB60F9211242F933F93AC
:100630008F939F93AF93BF938091A1049091A20455
:10064000A091A304B091A4043091A00423E0230F4F
:100650002D3758F50196A11DB11D2093A00480935C
:10066000A1049093A204A093A304B093A404809146
:10067000A5049091A604A091A704B091A8040196A6
:10068000A11DB11D8093A5049093A604A093A70477
:10069000B093A804BF91AF919F918F913F912F91FB
:1006A0000F900FBE0F901F90189526E8230F02960B
:1006B000A11DB11DD2CF789484B5826084BD84B56C
:1006C000816084BD85B5826085BD85B5816085BD4D
:1006D00080916E00816080936E0010928100809105
:1006E000810082608093810080918100816080938D
:1006F0008100809180008160809380008091B100B2
:1007000084608093B1008091B00081608093B000DC
:1007100080917A00846080937A0080917A00826070
:1007200080937A0080917A00816080937A00809132
:100730007A00806880937A001092C10060E08EE0B9
:100740000E94530160E080E10E94530160E081E17A
:100750000E94530160E08FE00E94530161E08EE04F
:100760000E94250161E080E10E94250161E081E1B4
:100770000E94250161E08FE00E9425010E94B002E5
:100780002091B104222341F1C091B204D091B3046D
:100790002150E9F030E050E040E06FEF7FEF80E083
:1007A00090E00E944E06FE014091AD045091AE04CF
:1007B000CF018C1B9D0B8417950760F44081429FED
:1007C000C001439F900D112490833196EDCF30E00E
:1007D00020E0E9CF1092B1048091AF049091B00471
:1007E00097FD08C061E00E94530160E08091AF0472
:1007F0000E94250181E08093AA040E94A901BEED18
:10080000CB2ED12CE12CF12CE3E58E2EE7E09E2EB1
:10081000F4E0AF2EB12CA0E02A2EA0E03A2E0E94E8
:1008200084012B013C010E94840164197509860929
:100830009709683E734081059105A8F381E10E9404
:10084000FC00892B09F477C08FE00E94FC00892B03
:1008500089F480919C0490919D04019631F081E08F
:1008600090E090939D0480939C048FE00E94FC0094
:10087000892BD9F38EE00E94FC00892B89F48091AA
:100880009C0490919D04409731F040EF5FEF5093AE
:100890009D0440939C048EE00E94FC00892BD9F3B8
:1008A00080E10E94FC00892B89F480919C04909146
:1008B0009D04409631F080E190E090939D048093F8
:1008C0009C0480E10E94FC00892BD9F380919E0456
:1008D00090919F04019690939F0480939E044E975D
:1008E00019F580919C0490919D040097B9F0209196
:1008F000000130910101820F931F8C01000F111F25
:10090000F801E456FD4F20813181A9014D7F41302E
:10091000510519F50E94B0020E94A9010E94A90187
:1009200010929F0410929E042114310409F477CF91
:100930000E94000069CF80919C0490919D040197D2
:1009400031F04FEF5FEF50939D0440939C0481E1A1
:100950000E94FC00892BD9F377CF70E060E024304F
:100960003105D1F420919A0230919B02F901EE0FEA
:10097000FF1FE250FF4F40815181F901EE0FFF1F31
:10098000E050FF4F518340832F5F3F4F30939B02D6
:1009900020939A0261E070E020919A0230919B02CC
:1009A000A0E0B1E0ED0150E040E0421753075CF4F5
:1009B000E991F991EE0FFF1FE456FD4F118210826D
:1009C0004F5F5F4FF2CFA901F901EE0FFF1FE0501B
:1009D000FF4F4150510932971416150644F4EF01A8
:1009E00022970990D881C02DD183C083F2CF9093F4
:1009F00001018093000181E090E012968217930735
:100A00006CF4ED91FC911197EE0FFF1FE456FD4F32
:100A100043E050E0518340830196EFCFF801E45664
:100A2000FD4F82E090E0918380836130710509F091
:100A300075CF8114910409F471CF0E94F605A701C6
:100A400096010E944E066F5E7F4F8F4F9F4FFB01B6
:100A5000EE0FFF1FE456FD4F80819181892B49F7EE
:100A6000B182A0825BCFCF93DF931092AA04109241
:100A7000B1041092B8041092B9041092BA04109202
:100A8000BB0481E08093B7048093B4041092B50452
:100A900092E09093B6048093A904C0E0D3E0D09391
:100AA000AE04C093AD0480E093E00E94B70690933B
:100AB000B3048093B2040097A1F1FC019E0111924E
:100AC00021503040E1F780E091E09093AC048093B6
:100AD000AB0486E090E09093B0048093AF048091E3
:100AE000AA04882341F061E086E00E94530160E09F
:100AF00086E00E942501ECE8F0E0E491F0E0EE0FE2
:100B0000FF1FEE58FF4F859194919093BD04809301
:100B1000BC04E0EAF0E0E491E093BE04DF91CF9101
:100B200008951092AE041092AD041092AC0410928D
:100B3000AB04CFCF8091B2049091B3040E945307CD
:100B40008091AF049091B00497FD03C060E00C94D5
:100B5000530108958F929F92AF92BF92CF92DF92EE
:100B6000EF92FF92CF93DF93EC01688179818A81C4
:100B70009B81611571058105910521F464E279ED90
:100B80008BE597E02DE133EF41E050E00E944E0607
:100B900049015A019B01AC01A7EAB1E40E946D062C
:100BA0006B017C01ACEEB4EFA50194010E947B06C1
:100BB000C60ED71EE81EF91EF7FE06C081E0C81A51
:100BC000D108E10880E8F80AC882D982EA82FB826B
:100BD000C701B6019F77DF91CF91FF90EF90DF9033
:100BE000CF90BF90AF909F908F9008958F929F92DB
:100BF000AF92BF92CF92DF92EF92FF9260919002FC
:100C00007091910280919202909193026115710509
:100C10008105910521F464E279ED8BE597E02DE102
:100C200033EF41E050E00E944E0649015A019B011A
:100C3000AC01A7EAB1E40E946D066B017C01ACEE49
:100C4000B4EFA50194010E947B06C60ED71EE81ED4
:100C5000F91EF7FE06C081E0C81AD108E10880E855
:100C6000F80AC0929002D0929102E0929202F09221
:100C70009302C701B6019F77FF90EF90DF90CF906E
:100C8000BF90AF909F908F90089560939002709363
:100C9000910280939202909393020895052E97FB00
:100CA0001EF400940E94650657FD07D00E9480063E
:100CB00007FC03D04EF40C94650650954095309592
:100CC00021953F4F4F4F5F4F0895909580957095B8
:100CD00061957F4F8F4F9F4F08950E94A206A59F59
:100CE000900DB49F900DA49F800D911D1124089527
:100CF000B7FF0C946D060E946D06821B930B08953E
:100D0000A1E21A2EAA1BBB1BFD010DC0AA1FBB1F0F
:100D1000EE1FFF1FA217B307E407F50720F0A21B81
:100D2000B30BE40BF50B661F771F881F991F1A94EE
:100D300069F760957095809590959B01AC01BD0118
:100D4000CF010895A29FB001B39FC001A39F700D72
:100D5000811D1124911DB29F700D811D1124911DC3
:100D60000895EE0FFF1F0590F491E02D09940F9365
:100D70001F93CF93DF938230910510F482E090E0CF
:100D8000E091C104F091C20430E020E0B0E0A0E0C6
:100D9000309799F42115310509F44AC0281B390B05
:100DA00024303105D8F58A819B816115710589F15F
:100DB000FB0193838283FE0111C040815181028136
:100DC000138148175907E0F04817590799F410970D
:100DD00061F012960C93129713961C933296CF01E2
:100DE000DF91CF911F910F9108950093C10410934B
:100DF000C204F4CF2115310551F04217530738F0E2
:100E0000A901DB019A01BD01DF01F801C1CFEF01AA
:100E1000F9CF9093C2048093C104CDCFFE01E20FBD
:100E2000F31F819391932250310939832883D7CFBF
:100E30002091BF043091C004232B41F420919602ED
:100E4000309197023093C0042093BF042091940204
:100E5000309195022115310541F42DB73EB74091EF
:100E6000980250919902241B350BE091BF04F09138
:100E7000C004E217F307A0F42E1B3F0B2817390715
:100E800078F0AC014E5F5F4F2417350748F04E0FE6
:100E90005F1F5093C0044093BF04819391939FCFF1
:100EA000F0E0E0E09CCFCF93DF930097E9F0FC0106
:100EB000329713821282A091C104B091C204ED0155
:100EC00030E020E01097A1F420813181820F931F40
:100ED0002091BF043091C0042817390709F061C080
:100EE000F093C004E093BF04DF91CF910895EA012D
:100EF000CE17DF07E8F54A815B819E014115510558
:100F0000B1F7E901FB83EA8349915991C40FD51FD9
:100F1000EC17FD0761F4808191810296840F951F83
:100F2000E90199838883828193819B838A83F0E09E
:100F3000E0E012968D919C9113970097B9F52D9151
:100F40003C911197CD010296820F931F2091BF040F
:100F50003091C0042817390739F6309751F51092AF
:100F6000C2041092C104B093C004A093BF04BCCFCC
:100F7000D383C28340815181840F951FC817D9073D
:100F800061F44E5F5F4F88819981480F591F5183EB
:100F900040838A819B81938382832115310509F0E7
:100FA000B0CFF093C204E093C1049ECFFD01DC01F9
:100FB000C0CF13821282D7CF10E0C2E6D0E004C0C7
:100FC000FE010E94B1062196C336D107C9F7F894F5
:100FD000FFCF680069006A00000000000000000008
:100FE0000000000000000000000000000000000001
:100FF00000000000000000000000000000000000F1
:1010000000000000000000000000000000000000E0
:1010100000000000000000000000000000000000D0
:1010200000000000000000000000000000000000C0
:1010300000000000000000000000000000000000B0
:1010400000000000000000000000000000000000A0
:101050000000000000000000000000000000000090
:101060000000000000000000000000000000000080
:101070000000000000000000000000000000000070
:101080000000000000000000000000000000000060
:101090000000000000000000000000000000000050
:1010A0000000000000000000000000000000000040
:1010B0000000000000000000000000000000000030
:1010C0000000000000000000000000000000000020
:1010D0000000000000000000000000000000000010
:1010E0000000000000000000000000000000000000
:1010F00000000000000000000000000000000000F0
:1011000000000000000000000000000000000000DF
:1011100000000000000000000000000000000000CF
:1011200000000000000000000000000000000000BF
:1011300000000000000000000000000000000000AF
:10114000000000000000000000000000000000009F
:10115000000000000000000000000000000000008F
:0C1160000000010000000000C30480003B
:107E0000112484B714BE81FFF0D085E080938100F7
:107E100082E08093C00088E18093C10086E0809377
:107E2000C20080E18093C4008EE0C9D0259A86E02C
:107E300020E33CEF91E0309385002093840096BBD3
:107E4000B09BFECF1D9AA8958150A9F7CC24DD24C4
:107E500088248394B5E0AB2EA1E19A2EF3E0BF2EE7
:107E6000A2D0813461F49FD0082FAFD0023811F036
:107E7000013811F484E001C083E08DD089C08234E0
:107E800011F484E103C0853419F485E0A6D080C0E4
:107E9000853579F488D0E82EFF2485D0082F10E0AE
:107EA000102F00270E291F29000F111F8ED06801E7
:107EB0006FC0863521F484E090D080E0DECF843638
:107EC00009F040C070D06FD0082F6DD080E0C81688
:107ED00080E7D80618F4F601B7BEE895C0E0D1E017
:107EE00062D089930C17E1F7F0E0CF16F0E7DF06D8
:107EF00018F0F601B7BEE89568D007B600FCFDCFD4
:107F0000A601A0E0B1E02C9130E011968C91119780
:107F100090E0982F8827822B932B1296FA010C0160
:107F200087BEE89511244E5F5F4FF1E0A038BF0790
:107F300051F7F601A7BEE89507B600FCFDCF97BE46
:107F4000E89526C08437B1F42ED02DD0F82E2BD052
:107F50003CD0F601EF2C8F010F5F1F4F84911BD097
:107F6000EA94F801C1F70894C11CD11CFA94CF0C13
:107F7000D11C0EC0853739F428D08EE10CD085E9AC
:107F80000AD08FE07ACF813511F488E018D01DD067
:107F900080E101D065CF982F8091C00085FFFCCF94
:107FA0009093C60008958091C00087FFFCCF809118
:107FB000C00084FD01C0A8958091C6000895E0E648
:107FC000F0E098E1908380830895EDDF803219F02E
:107FD00088E0F5DFFFCF84E1DECF1F93182FE3DFCA
:107FE0001150E9F7F2DF1F91089580E0E8DFEE27F6
:047FF000FF270994CA
:027FFE00040479
:00000001FF
