:100000000C9463000C948B000C948B000C948B006C
:100010000C948B000C948B000C948B000C948B0034
:100020000C948B000C948B000C948B000C948B0024
:100030000C948B000C948B000C948B000C948B0014
:100040000C946D030C948B000C948B000C948B001F
:100050000C948B000C948B000C948B000C948B00F4
:100060000C948B000C948B000000000024002700EF
:100070002A0000000000250028002B0000000000DE
:1000800023002600290004040404040404040202DA
:100090000202020203030303030301020408102007
:1000A0004080010204081020010204081020000012
:1000B0000008000201000003040700000000000027
:1000C0000000EB05520611241FBECFEFD8E0DEBFC3
:1000D000CDBF13E0A0E0B1E0E2E4F1E102C00590A1
:1000E0000D92AC30B107D9F724E0ACE0B3E001C029
:1000F0001D92A53CB207E1F710E0C2E6D0E004C0D3
:100100002197FE010E946907C136D107C9F70E94F5
:10011000B7030C9494080C940000E091AD04F091A6
:10012000AE048E179F0798F53091B304332361F026
:10013000639FB0011124672F349FA0011124452F24
:10014000329F90011124232F3091B904E091B4041F
:10015000F091B5045091B60435131AC0DC01AA0F12
:10016000BB1F8A0F9B1F8E0F9F1FE091B604E80FE5
:10017000F92FF11D6083E091B704E80FF92FF11D0D
:1001800040833091B804830F911DFC0120830895B2
:10019000880F991F880F991F8E0F9F1FFC01E30F77
:1001A000F11D1082E2CF833081F028F4813099F084
:1001B0008230A9F008958730A9F08830C9F08430E2
:1001C000B1F4809180008F7D03C0809180008F7793
:1001D00080938000089584B58F7784BD089584B599
:1001E0008F7DFBCF8091B0008F778093B000089512
:1001F0008091B0008F7DF9CFCF93DF93282F30E02F
:10020000F901E255FF4F8491F901E656FF4FD49171
:10021000F901EA57FF4FC491CC23A1F081110E944C
:10022000D300EC2FF0E0EE0FFF1FE458FF4FA59135
:10023000B491EC91ED2381E090E009F480E0DF914E
:10024000CF91089580E090E0FACF1F93CF93DF9392
:10025000282F30E0F901E255FF4F8491F901E6566D
:10026000FF4FD491F901EA57FF4FC491CC23A9F075
:10027000162F81110E94D300EC2FF0E0EE0FFF1F2C
:10028000EE58FF4FA591B4918FB7F894EC911111EE
:1002900008C0D095DE23DC938FBFDF91CF911F91F3
:1002A0000895DE2BF8CFCF93DF9390E0FC01E65664
:1002B000FF4F24918A579F4FFC0184918823D1F0EE
:1002C00090E0880F991FFC01E859FF4FA591B49168
:1002D000FC01EE58FF4FC591D49161110EC09FB73C
:1002E000F8948C91E22FE0958E238C932881E22361
:1002F000E8839FBFDF91CF9108958FB7F894EC9179
:10030000E22BEC938FBFF6CF3FB7F8948091A70410
:100310009091A804A091A904B091AA0426B5A89B25
:1003200005C02F3F19F00196A11DB11D3FBFBA2F87
:10033000A92F982F8827BC01CD01620F711D811D47
:10034000911D42E0660F771F881F991F4A95D1F7CC
:1003500008958F929F92AF92BF92CF92DF92EF92C9
:10036000FF924B015C010E9484016B017C010E94A1
:1003700084016C197D098E099F09683E73408105CF
:100380009105A8F321E0821A9108A108B10888EE2E
:10039000C80E83E0D81EE11CF11C81149104A10455
:1003A000B10429F7FF90EF90DF90CF90BF90AF900E
:1003B0009F908F900895CF92DF92EF92FF920F93CC
:1003C0001F93CF93DF93CDB7DEB729970FB6F8947D
:1003D000DEBF0FBECDBF92E0C92E91E0D92EF12C29
:1003E000E12C10E000E0F801EE0FFF1FEC0DFD1D09
:1003F000808191818230910509F4C1C00CF0A9C0BF
:10040000009709F4B0C020E040E0019709F4B0C0C3
:100410000F5F1F4F0031110531F720E1E20EF11C93
:1004200080E2C80ED11CE11421E0F206D1F68091E1
:10043000B4049091B504892B09F47CC00E94840116
:100440000091BA041091BB042091BC043091BD040A
:10045000601771078207930740F46093BA047093A2
:10046000BB048093BC049093BD040091BA04109126
:10047000BB042091BC043091BD04601B710B820B46
:10048000930B6C32714081059105C0F2F894809114
:10049000AF049091B0049A838983E091B404F09101
:1004A000B504DF011196808189879091AB04E091BA
:1004B000BE04F091BF048091C004992309F462C086
:1004C0009081982B98879081809589238F838F8145
:1004D0008C8388E08B8358856F8149853B812C8193
:1004E00089819A81508347FD252F3A952083262FB5
:1004F00039F0441F00C000006083000000C0F2CF4C
:1005000038E04D9160830000019761F7F093BF04DC
:10051000E093BE0449873B832C839A838983789434
:100520000E9484016093BA047093BB048093BC045E
:100530009093BD0429960FB6F894DEBF0FBECDBFD1
:10054000DF91CF911F910F91FF90EF90DF90CF90AF
:1005500008958330910551F020E040E0049709F0C0
:1005600057CF6FEF06C02FEF4FEFFBCF20E04FEFDD
:1005700060E0C701800F911F0E948D0049CF20E0ED
:1005800048E7F6CF9081982B9887908180958923B2
:100590008F838F818E8388E08D8358856F81498515
:1005A0003D812E8189819A81508347FD252F00C08E
:1005B00000C0208300C000C000C000C000C0608335
:1005C0000000262F3A9541F0441F000000C000C0F3
:1005D00000C000C000C0E8CF38E04D9100C060838B
:1005E00000C0019709F7F093BF04E093BE04498768
:1005F0003D832E8392CFCF93DF9382E291E0A2E0FE
:10060000B1E021E030E0F901EE0FFF1FE80FF91F24
:10061000118210822F5F3F4F2F303105A1F7809656
:1006200022E0823E920769F7E2E0F1E081E090E0AB
:10063000918380838D939D93ED01C252DE4F998308
:100640008883978F868FB09623E0E230F20781F798
:1006500083E090E0909301018093000129E030E075
:1006600030930D0320930C034AE050E050930F03A6
:1006700040930E0330931103209310034BE050E09E
:1006800050931303409312033093150320931403E4
:100690002CE030E0309317032093160322E030E083
:1006A00030933702209336029093390280933802B8
:1006B00090933B0280933A0284E090E09093310261
:1006C0008093300210929D0410929C0410929F041B
:1006D00010929E04DF91CF9108951F920F920FB652
:1006E0000F9211242F933F938F939F93AF93BF93B8
:1006F0008091A3049091A404A091A504B091A604B4
:100700003091A20423E0230F2D3758F50196A11D47
:10071000B11D2093A2048093A3049093A404A093FA
:10072000A504B093A6048091A7049091A804A09179
:10073000A904B091AA040196A11DB11D8093A7043C
:100740009093A804A093A904B093AA04BF91AF9179
:100750009F918F913F912F910F900FBE0F901F90FF
:10076000189526E8230F0296A11DB11DD2CF7894CB
:1007700084B5826084BD84B5816084BD85B58260A6
:1007800085BD85B5816085BD80916E008160809357
:100790006E001092810080918100826080938100C0
:1007A00080918100816080938100809180008160D0
:1007B000809380008091B10084608093B10080912B
:1007C000B00081608093B00080917A008460809353
:1007D0007A0080917A00826080937A0080917A001A
:1007E000816080937A0080917A00806880937A009B
:1007F0001092C10060E08EE00E94530160E080E151
:100800000E94530160E081E10E94530160E08FE0AB
:100810000E94530161E08EE00E94250161E080E1C9
:100820000E94250161E081E10E94250161E08FE0E5
:100830000E9425010E94FB022091B304222341F172
:10084000C091B404D091B5042150E9F030E050E0FB
:1008500040E06FEF7FEF80E090E00E940607FE012E
:100860004091AF045091B004CF018C1B9D0B8417B5
:10087000950760F44081429FC001439F900D112471
:1008800090833196EDCF30E020E0E9CF1092B304B1
:100890008091B1049091B20497FD08C061E00E947C
:1008A000530160E08091B1040E94250181E08093B2
:1008B000AC040E94DB01CEE0CC2ED12CE12CF12C3B
:1008C00044244A94542C66246394712CB0E02B2E5B
:1008D000B0E03B2E61E070E080E090E00E94A90172
:1008E00081E10E94FC00892B99F480919E049091F3
:1008F0009F04019741F010929D0410929C04509225
:100900009F0440929E0481E10E94FC00892BD9F350
:100910008FE00E94FC00892B99F480919E049091B5
:100920009F04019641F010929D0410929C047092D5
:100930009F0460929E048FE00E94FC00892BD9F3F3
:100940008EE00E94FC00892B99F480919C04909188
:100950009D04019741F010929F0410929E045092C2
:100960009D0440929C048EE00E94FC00892BD9F3E8
:1009700080E10E94FC00892B99F480919C04909165
:100980009D04019641F010929F0410929E04709273
:100990009D0460929C0480E10E94FC00892BD9F3A5
:1009A0008091A0049091A10401969093A10480935A
:1009B000A0044E97E1F500919C0410919D042091B4
:1009C0009E0430919F040115110519F4211531057C
:1009D00041F180910C0390910D03080F191F809134
:1009E0000E0390910F03280F391F4801E4E0880C93
:1009F000991CEA95E1F7F401E20FF31FEE0FFF1FD8
:100A0000EE5FFE4F80819181AC014D7F41305105F9
:100A1000A9F46AE070E080E090E00E94A9010E94E1
:100A2000FB020E94DB011092A1041092A004211489
:100A3000310409F44FCF0E94000048CFB12CA12C03
:100A4000049721F58091000190910101DC01AA0F2A
:100A5000BB1FAA0FBB1FA85FBC4F4D915C911197A4
:100A6000FC01EE0FFF1FEE0FFF1FE45FFC4F5183F1
:100A7000408312964D915C915383428301969093EB
:100A8000010180930001AA24A394B12C409100019C
:100A900050910101ECE0F3E0DF0170E060E06417E9
:100AA0007507C4F48D919C911197C4E0880F991F2C
:100AB000CA95E1F71296CD91DC911397C80FD91F13
:100AC000CC0FDD1FCE5FDE4F198218826F5F7F4F24
:100AD0001496E5CFCA01DA01AA0FBB1FAA0FBB1FEC
:100AE000AC5FBC4F0197181619068CF46D917C9180
:100AF000119715967C936E93149712966D917C9135
:100B0000139717967C936E9316971497EBCF1093C9
:100B10000D0300930C0330930F0320930E0361E049
:100B200070E0349664177507B4F480819181A4E075
:100B3000880F991FAA95E1F7A281B381A80FB91F69
:100B4000AA0FBB1FAE5FBE4F83E090E08D939C93D6
:100B50006F5F7F4FE6CFF401E20FF31FEE0FFF1F31
:100B6000EE5FFE4F82E090E091838083AA94AB28F1
:100B700009F057CF8BE098E0892B09F452CF0E94FF
:100B8000AE06A70196010E9406074B015C012FEFFC
:100B9000821A920AA20AB20A0E94AE06A701960120
:100BA0000E9406076F5F7F4F8F4F9F4F84E0880C36
:100BB000991C8A95E1F7F401E60FF71FEE0FFF1F6E
:100BC000EE5FFE4F80819181892BA1F684E090E059
:100BD0009183808326CFCF93DF931092AC04109241
:100BE000B3041092BA041092BB041092BC04109289
:100BF000BD0481E08093B9048093B6041092B704D9
:100C000092E09093B8048093AB04C0E0D3E0D0931B
:100C1000B004C093AF0480E093E00E946F0790930C
:100C2000B5048093B4040097A1F1FC019E011192D8
:100C300021503040E1F780E091E09093AE04809342
:100C4000AD0486E090E09093B2048093B10480916B
:100C5000AC04882341F061E086E00E94530160E02B
:100C600086E00E942501ECE8F0E0E491F0E0EE0F70
:100C7000FF1FEE58FF4F859194919093BF0480938E
:100C8000BE04E0EAF0E0E491E093C004DF91CF918C
:100C900008951092B0041092AF041092AE04109216
:100CA000AD04CFCF8091B4049091B5040E940B089D
:100CB0008091B1049091B20497FD03C060E00C9460
:100CC000530108958F929F92AF92BF92CF92DF927D
:100CD000EF92FF92CF93DF93EC01688179818A8153
:100CE0009B81611571058105910521F464E279ED1F
:100CF0008BE597E02DE133EF41E050E00E940607DD
:100D000049015A019B01AC01A7EAB1E40E94250701
:100D10006B017C01ACEEB4EFA50194010E94330796
:100D2000C60ED71EE81EF91EF7FE06C081E0C81ADF
:100D3000D108E10880E8F80AC882D982EA82FB82F9
:100D4000C701B6019F77DF91CF91FF90EF90DF90C1
:100D5000CF90BF90AF909F908F9008958F929F9269
:100D6000AF92BF92CF92DF92EF92FF926091020317
:100D7000709103038091040390910503611571053F
:100D80008105910521F464E279ED8BE597E02DE191
:100D900033EF41E050E00E94060749015A019B01F0
:100DA000AC01A7EAB1E40E9425076B017C01ACEE1F
:100DB000B4EFA50194010E943307C60ED71EE81EAA
:100DC000F91EF7FE06C081E0C81AD108E10880E8E4
:100DD000F80AC0920203D0920303E0920403F09257
:100DE0000503C701B6019F77FF90EF90DF90CF908A
:100DF000BF90AF909F908F9008956093020370937F
:100E0000030380930403909305030895052E97FB35
:100E10001EF400940E941D0757FD07D00E9438075A
:100E200007FC03D04EF40C941D0750954095309567
:100E300021953F4F4F4F5F4F089590958095709546
:100E400061957F4F8F4F9F4F08950E945A07A59F2E
:100E5000900DB49F900DA49F800D911D11240895B5
:100E6000B7FF0C9425070E942507821B930B08955A
:100E7000A1E21A2EAA1BBB1BFD010DC0AA1FBB1F9E
:100E8000EE1FFF1FA217B307E407F50720F0A21B10
:100E9000B30BE40BF50B661F771F881F991F1A947D
:100EA00069F760957095809590959B01AC01BD01A7
:100EB000CF010895A29FB001B39FC001A39F700D01
:100EC000811D1124911DB29F700D811D1124911D52
:100ED0000895EE0FFF1F0590F491E02D09940F93F4
:100EE0001F93CF93DF938230910510F482E090E05E
:100EF000E091C304F091C40430E020E0B0E0A0E051
:100F0000309799F42115310509F44AC0281B390B93
:100F100024303105D8F58A819B816115710589F1ED
:100F2000FB0193838283FE0111C0408151810281C4
:100F3000138148175907E0F04817590799F410979B
:100F400061F012960C93129713961C933296CF0170
:100F5000DF91CF911F910F9108950093C3041093D7
:100F6000C404F4CF2115310551F04217530738F06E
:100F7000A901DB019A01BD01DF01F801C1CFEF0139
:100F8000F9CF9093C4048093C304CDCFFE01E20F48
:100F9000F31F819391932250310939832883D7CF4E
:100FA0002091C1043091C204232B41F42091080305
:100FB000309109033093C2042093C10420910603A9
:100FC000309107032115310541F42DB73EB740910B
:100FD0000A0350910B03241B350BE091C104F091DF
:100FE000C204E217F307A0F42E1B3F0B28173907A2
:100FF00078F0AC014E5F5F4F2417350748F04E0F75
:101000005F1F5093C2044093C104819391939FCF7B
:10101000F0E0E0E09CCFCF93DF930097E9F0FC0194
:10102000329713821282A091C304B091C404ED01DF
:1010300030E020E01097A1F420813181820F931FCE
:101040002091C1043091C2042817390709F061C00A
:10105000F093C204E093C104DF91CF910895EA01B7
:10106000CE17DF07E8F54A815B819E0141155105E6
:10107000B1F7E901FB83EA8349915991C40FD51F68
:10108000EC17FD0761F4808191810296840F951F12
:10109000E90199838883828193819B838A83F0E02D
:1010A000E0E012968D919C9113970097B9F52D91E0
:1010B0003C911197CD010296820F931F2091C1049C
:1010C0003091C2042817390739F6309751F510923C
:1010D000C4041092C304B093C204A093C104BCCF53
:1010E000D383C28340815181840F951FC817D907CC
:1010F00061F44E5F5F4F88819981480F591F51837A
:1011000040838A819B81938382832115310509F075
:10111000B0CFF093C404E093C3049ECFFD01DC0183
:10112000C0CF13821282D7CF10E0C2E6D0E004C055
:10113000FE010E9469072196C336D107C9F7F894CA
:02114000FFCFDF
:101142000300010001000100010001000100010093
:101152000100010001000100010001000100010085
:10116200010001000000000000000000000000007B
:10117200000000000000000000000000000000006D
:10118200010001000000000000000000000000005B
:10119200000000000000000000000000000000004D
:1011A200010001000000000000000000000000003B
:1011B200000000000000000000000000000000002D
:1011C200010001000000000000000000000000001B
:1011D200000000000000000000000000000000000D
:1011E20001000100000000000000000000000000FB
:1011F20000000000000000000000000000000000ED
:1012020001000100000000000000000000000000DA
:1012120000000000000000000000000000000000CC
:1012220001000100000000000000000000000000BA
:1012320000000000000000000000000000000000AC
:10124200010001000000000000000000000000009A
:10125200000000000000000000000000000000008C
:10126200010001000000000000000000000000007A
:10127200000000000000000000000000000000006C
:10128200010001000000000000000000000000005A
:10129200000000000000000000000000000000004C
:1012A200010001000000000000000000000000003A
:1012B200000000000000000000000000000000002C
:1012C200010001000000000000000000000000001A
:1012D200000000000000000000000000000000000C
:1012E20001000100000000000000000000000000FA
:1012F20000000000000000000000000000000000EC
:1013020001000100000000000000000000000000D9
:1013120000000000000000000000000000000000CB
:1013220001000100010001000100010001000100B3
:1013320001000100010001000100010001000100A3
:0C1342000100010000000000C504800054
:00000001FF
