:020000040000FA
:100000000C9463000C948B000C948B000C948B006C
:100010000C948B000C948B000C948B000C948B0034
:100020000C948B000C948B000C948B000C948B0024
:100030000C948B000C948B000C948B000C948B0014
:100040000C947D030C948B000C948B000C948B000F
:100050000C948B000C948B000C948B000C948B00F4
:100060000C948B000C948B000000000024002700EF
:100070002A0000000000250028002B0000000000DE
:1000800023002600290004040404040404040202DA
:100090000202020203030303030301020408102007
:1000A0004080010204081020010204081020000012
:1000B0000008000201000003040700000000000027
:1000C00000001206AE0611241FBECFEFD8E0DEBF3F
:1000D000CDBF11E0A0E0B1E0EAEFF1E102C0059090
:1000E0000D92AA30B107D9F724E0AAE0B1E001C02F
:1000F0001D92A330B207E1F710E0C2E6D0E004C0E1
:100100002197FE010E94C507C136D107C9F70E9499
:10011000C7030C94F0080C940000E091EB03F091FD
:10012000EC038E179F0798F53091F103332361F0AC
:10013000639FB0011124672F349FA0011124452F24
:10014000329F90011124232F3091F703E091F203A5
:10015000F091F3035091F40335131AC0DC01AA0F98
:10016000BB1F8A0F9B1F8E0F9F1FE091F403E80FA8
:10017000F92FF11D6083E091F503E80FF92FF11DD0
:1001800040833091F603830F911DFC012083089575
:10019000880F991F880F991F8E0F9F1FFC01E30F77
:1001A000F11D1082E2CFCF93DF9385E391E021E050
:1001B00030E0F901EE0FFF1FE253FF4FE80FF91F88
:1001C000118210822F5F3F4F2F30310591F78096BB
:1001D00022E0853F920759F7A3EEB1E0FD0181E0EF
:1001E00090E0918380838D939D93ED01C252DE4F09
:1001F00099838883978F868FB09623E0E33EF2073A
:1002000081F783E090E0909316018093150129E037
:1002100030E030931C0120931B014AE050E05093E2
:100220001E0140931D013093200120931F014BE0DC
:1002300050E05093220140932101309324012093F8
:1002400023012CE030E0309326012093250122E0A9
:1002500030E0309318032093170390931A03809390
:10026000190390931C0380931B0384E090E0909308
:10027000120380931103109218011092170110922B
:100280001A0110921901DF91CF910895833081F006
:1002900028F4813099F08230A9F008958730A9F0D0
:1002A0008830C9F08430B1F4809180008F7D03C024
:1002B000809180008F7780938000089584B58F7738
:1002C00084BD089584B58F7DFBCF8091B0008F777A
:1002D0008093B00008958091B0008F7DF9CFCF93C7
:1002E000DF93282F30E0F901E255FF4F8491F901A7
:1002F000E656FF4FD491F901EA57FF4FC491CC2342
:10030000A1F081110E944601EC2FF0E0EE0FFF1FDB
:10031000E458FF4FA591B491EC91ED2381E090E07A
:1003200009F480E0DF91CF91089580E090E0FACF6A
:100330001F93CF93DF93282F30E0F901E255FF4F51
:100340008491F901E656FF4FD491F901EA57FF4F26
:10035000C491CC23A9F0162F81110E944601EC2FE5
:10036000F0E0EE0FFF1FEE58FF4FA591B4918FB74D
:10037000F894EC91111108C0D095DE23DC938FBF67
:10038000DF91CF911F910895DE2BF8CFCF93DF93AC
:1003900090E0FC01E656FF4F24918A579F4FFC01E5
:1003A00084918823D1F090E0880F991FFC01E859CF
:1003B000FF4FA591B491FC01EE58FF4FC591D49128
:1003C00061110EC09FB7F8948C91E22FE0958E23B7
:1003D0008C932881E223E8839FBFDF91CF9108951A
:1003E0008FB7F894EC91E22BEC938FBFF6CF3FB729
:1003F000F8948091110190911201A0911301B09194
:10040000140126B5A89B05C02F3F19F00196A11D28
:10041000B11D3FBFBA2FA92F982F8827BC01CD014E
:10042000620F711D811D911D42E0660F771F881FAD
:10043000991F4A95D1F70895CF92DF92EF92FF92DC
:100440000F931F93CF93DF93CDB7DEB729970FB6E6
:10045000F894DEBF0FBECDBFF12CE12C10E000E020
:100460008091E5039091E603E816F9060CF048C088
:10047000D12CC12C2091E7033091E803C216D3069A
:10048000DCF5E29EC001E39E900DF29E900D1124DA
:100490008C0D9D1D880F991F2091E3033091E4037B
:1004A000820F931FFC01808191818230910501F1BF
:1004B00064F4009799F020E040E00197A1F00F5F0D
:1004C0001F4FFFEFCF1ADF0AD5CF8330910549F0D8
:1004D00020E040E0049799F76FEF06C02FEF4FEF51
:1004E000FBCF20E04FEF60E0C8010E948D00E7CF16
:1004F00020E040E068E7F8CF2FEFE21AF20AB0CF31
:100500008091F2039091F303892B09F47CC00E943F
:10051000F7010091F8031091F9032091FA0330914B
:10052000FB03601771078207930740F46093F80399
:100530007093F9038093FA039093FB030091F803FF
:100540001091F9032091FA033091FB03601B710BAA
:10055000820B930B6C32714081059105C0F2F894C7
:100560008091ED039091EE039A838983E091F203E9
:10057000F091F303DF011196808189879091E9035F
:10058000E091FC03F091FD038091FE03992309F4AF
:1005900049C09081982B98879081809589238F837B
:1005A0008F818C8388E08B8358856F8149853B815F
:1005B0002C8189819A81508347FD252F3A9520838C
:1005C000262F39F0441F00C000006083000000C0E7
:1005D000F2CF38E04D9160830000019761F7F0930E
:1005E000FD03E093FC0349873B832C839A83898333
:1005F00078940E94F7016093F8037093F903809355
:10060000FA039093FB0329960FB6F894DEBF0FBE52
:10061000CDBFDF91CF911F910F91FF90EF90DF90B1
:10062000CF9008959081982B988790818095892309
:100630008F838F818E8388E08D8358856F81498574
:100640003D812E8189819A81508347FD252F00C0ED
:1006500000C0208300C000C000C000C000C0608394
:100660000000262F3A9541F0441F000000C000C052
:1006700000C000C000C0E8CF38E04D9100C06083EA
:1006800000C0019709F7F093FD03E093FC0349874D
:100690003D832E83ABCF8F929F92AF92BF92CF922A
:1006A000DF92EF92FF924B015C010E94F7016B0118
:1006B0007C010E94F7016C197D098E099F09683E33
:1006C000734081059105A8F321E0821A9108A108E1
:1006D000B10888EEC80E83E0D81EE11CF11C81141D
:1006E0009104A104B10429F7FF90EF90DF90CF901F
:1006F000BF90AF909F908F9008951F920F920FB66A
:100700000F9211242F933F938F939F93AF93BF9397
:1007100080910D0190910E01A0910F01B0911001F7
:1007200030910C0123E0230F2D3758F50196A11DC0
:10073000B11D20930C0180930D0190930E01A093A5
:100740000F01B09310018091110190911201A091BD
:100750001301B09114010196A11DB11D80931101E7
:1007600090931201A0931301B0931401BF91AF9124
:100770009F918F913F912F910F900FBE0F901F90DF
:10078000189526E8230F0296A11DB11DD2CF7894AB
:1007900084B5826084BD84B5816084BD85B5826086
:1007A00085BD85B5816085BD80916E008160809337
:1007B0006E001092810080918100826080938100A0
:1007C00080918100816080938100809180008160B0
:1007D000809380008091B10084608093B10080910B
:1007E000B00081608093B00080917A008460809333
:1007F0007A0080917A00826080937A0080917A00FA
:10080000816080937A0080917A00806880937A007A
:100810001092C10060E08EE00E94C60160E080E1BD
:100820000E94C60160E081E10E94C60160E08FE0A5
:100830000E94C60161E08EE00E94980161E080E1C3
:100840000E94980161E081E10E94980161E08FE0DF
:100850000E9498012091F103222341F1C091F203FB
:10086000D091F3032150E9F030E050E040E06FEF29
:100870007FEF80E090E00E946207FE014091ED036F
:100880005091EE03CF018C1B9D0B8417950760F4EC
:100890004081429FC001439F900D11249083319667
:1008A000EDCF30E020E0E9CF1092F1038091EF032B
:1008B0009091F00397FD08C061E00E94C60160E0DE
:1008C0008091EF030E94980181E08093EA030E94E7
:1008D000D30083EE91E09093E4038093E3030E94BE
:1008E0001C02DEE0CD2ED12CE12CF12C44244A94C4
:1008F000542C66246394712CC0E02C2EC0E03C2E56
:1009000061E070E080E090E00E944B0381E10E9492
:100910006F01892B99F48091190190911A01019727
:1009200041F0109218011092170150921A01409252
:10093000190181E10E946F01892BD9F38FE00E9498
:100940006F01892B99F48091190190911A010196F8
:1009500041F0109218011092170170921A016092E2
:1009600019018FE00E946F01892BD9F38EE00E945C
:100970006F01892B99F480911701909118010197CB
:1009800041F010921A0110921901509218014092F0
:1009900017018EE00E946F01892BD9F380E10E943C
:1009A0006F01892B99F4809117019091180101969C
:1009B00041F010921A011092190170921801609280
:1009C000170180E10E946F01892BD9F380910A0100
:1009D00090910B01019690930B0180930A014E9721
:1009E000E1F5009117011091180120911901309142
:1009F0001A010115110519F42115310541F18091F4
:100A00001B0190911C01080F191F80911D019091ED
:100A10001E01280F391F5801A4E0AA0CBB1CAA957F
:100A2000E1F7F501E20FF31FEE0FFF1FED51FE4F4F
:100A300080819181AC014D7F41305105A9F468EE70
:100A400073E080E090E00E944B030E94D3000E947C
:100A50001C0210920B0110920A012114310409F4B6
:100A60004FCF0E94000048CF912C812C049791F524
:100A70008091150190911601FC01EE0FFF1FEE0F02
:100A8000FF1FEF5EFE4F46815781FC01EE0FFF1FF7
:100A9000EE0FFF1FEB5EFE4F57834683AC014F5FA7
:100AA0005F4FFA01EE0FFF1FEE0FFF1FEB5EFE4FD1
:100AB00060817181880F991F880F991FFC01E35E87
:100AC000FE4F718360835093160140931501882473
:100AD0008394912C4091150150911601E5E1F1E0CC
:100AE000DF0170E060E0149664177507CCF412968D
:100AF0008D919C9113971496CD91DC9115978295C9
:100B00009295907F9827807F9827C80FD91FCC0F88
:100B1000DD1FCD51DE4F198218826F5F7F4FE3CF0B
:100B2000CA01DA01AA0FBB1FAA0FBB1FAB5EBE4FE3
:100B300001971497181619068CF412966D917C91F2
:100B4000139717967C936E93169714966D917C91DC
:100B5000159719967C936E931897EACF10931C0102
:100B600000931B0130931E0120931D0161E070E092
:100B7000349664177507B4F486819781A085B18592
:100B8000C4E0880F991FCA95E1F7A80FB91FAA0FF3
:100B9000BB1FAD51BE4F83E090E08D939C936F5F80
:100BA0007F4FE6CFF501E20FF31FEE0FFF1FED5170
:100BB000FE4F82E090E0918380838A94892809F037
:100BC00046CF87E698E0892B09F441CF0E940A07B7
:100BD000A70196010E9462074B015C012FEF821A68
:100BE000920AA20AB20A0E940A07A70196010E946D
:100BF00062076F5F7F4F8F4F9F4F84E0880C991C77
:100C00008A95E1F7F401E60FF71FEE0FFF1FED5194
:100C1000FE4F80819181892BA1F684E090E0918341
:100C2000808315CFCF93DF931092EA031092F103E4
:100C30001092F8031092F9031092FA031092FB033A
:100C400081E08093F7038093F4031092F50392E020
:100C50009093F6038093E903C0E0D3E0D093EE03D2
:100C6000C093ED0380E093E00E94CB079093F303E1
:100C70008093F203009709F468C0FC019E01119271
:100C800021503040E1F780E091E09093EC038093B5
:100C9000EB0386E090E09093F0038093EF03809164
:100CA000EA03882341F061E086E00E94C60160E02B
:100CB00086E00E949801ECE8F0E0E491F0E0EE0FAD
:100CC000FF1FEE58FF4F859194919093FD03809301
:100CD000FC03E0EAF0E0E491E093FE031092E40309
:100CE0001092E30383E090E0909316018093150146
:100CF000109218011092170110921A011092190106
:100D0000E5E1F1E045E153E0CF0130E020E0D90139
:100D1000AA0FBB1FA253BF4FA80FB91F1D921C9251
:100D20002F5F3F4F2031310591F7809648175907C3
:100D300061F71782168211861086349634E0E53307
:100D4000F307B9F7DF91CF9108951092EE03109257
:100D5000ED031092EC031092EB039BCF8091F20312
:100D60009091F3030E9467088091EF039091F00344
:100D700097FD03C060E00C94C60108958F929F9286
:100D8000AF92BF92CF92DF92EF92FF92CF93DF9319
:100D9000EC01688179818A819B81611571058105EA
:100DA000910521F464E279ED8BE597E02DE133EFD5
:100DB00041E050E00E94620749015A019B01AC01E9
:100DC000A7EAB1E40E9481076B017C01ACEEB4EFAD
:100DD000A50194010E948F07C60ED71EE81EF91EBA
:100DE000F7FE06C081E0C81AD108E10880E8F80AD9
:100DF000C882D982EA82FB82C701B6019F77DF9160
:100E0000CF91FF90EF90DF90CF90BF90AF909F90E9
:100E10008F9008958F929F92AF92BF92CF92DF9260
:100E2000EF92FF92609100017091010180910201A7
:100E300090910301611571058105910521F464E22A
:100E400079ED8BE597E02DE133EF41E050E00E9432
:100E5000620749015A019B01AC01A7EAB1E40E9473
:100E600081076B017C01ACEEB4EFA50194010E94F7
:100E70008F07C60ED71EE81EF91EF7FE06C081E0DA
:100E8000C81AD108E10880E8F80AC0920001D0929F
:100E90000101E0920201F0920301C701B6019F77C0
:100EA000FF90EF90DF90CF90BF90AF909F908F908A
:100EB0000895609300017093010180930201909363
:100EC00003010895052E97FB1EF400940E947907F4
:100ED00057FD07D00E94940707FC03D04EF40C94F2
:100EE000790750954095309521953F4F4F4F5F4F73
:100EF000089590958095709561957F4F8F4F9F4F86
:100F000008950E94B607A59F900DB49F900DA49FD1
:100F1000800D911D11240895B7FF0C9481070E9444
:100F20008107821B930B0895A1E21A2EAA1BBB1BFB
:100F3000FD010DC0AA1FBB1FEE1FFF1FA217B307A5
:100F4000E407F50720F0A21BB30BE40BF50B661FBB
:100F5000771F881F991F1A9469F76095709580957F
:100F600090959B01AC01BD01CF010895A29FB001F6
:100F7000B39FC001A39F700D811D1124911DB29FCD
:100F8000700D811D1124911D0895EE0FFF1F059016
:100F9000F491E02D09940F931F93CF93DF93823048
:100FA000910510F482E090E0E0910104F0910204D8
:100FB00030E020E0B0E0A0E0309799F42115310551
:100FC00009F44AC0281B390B24303105D8F58A8131
:100FD0009B816115710589F1FB0193838283FE0179
:100FE00011C0408151810281138148175907E0F0F7
:100FF0004817590799F4109761F012960C931297BD
:1010000013961C933296CF01DF91CF911F910F91D0
:1010100008950093010410930204F4CF21153105C3
:1010200051F04217530738F0A901DB019A01BD01C5
:10103000DF01F801C1CFEF01F9CF90930204809353
:101040000104CDCFFE01E20FF31F81939193225053
:10105000310939832883D7CF2091FF0330910004D1
:10106000232B41F4209106013091070130930004B5
:101070002093FF03209104013091050121153105D2
:1010800041F42DB73EB74091080150910901241B4E
:10109000350BE091FF03F0910004E217F307A0F491
:1010A0002E1B3F0B2817390778F0AC014E5F5F4FBE
:1010B0002417350748F04E0F5F1F509300044093EC
:1010C000FF03819391939FCFF0E0E0E09CCFCF931B
:1010D000DF930097E9F0FC01329713821282A0910E
:1010E0000104B0910204ED0130E020E01097A1F47A
:1010F00020813181820F931F2091FF0330910004E2
:101100002817390709F061C0F0930004E093FF034A
:10111000DF91CF910895EA01CE17DF07E8F54A8104
:101120005B819E0141155105B1F7E901FB83EA831B
:1011300049915991C40FD51FEC17FD0761F48081C7
:1011400091810296840F951FE9019983888382819A
:1011500093819B838A83F0E0E0E012968D919C91CD
:1011600013970097B9F52D913C911197CD010296F7
:10117000820F931F2091FF03309100042817390735
:1011800039F6309751F51092020410920104B09391
:101190000004A093FF03BCCFD383C283408151815D
:1011A000840F951FC817D90761F44E5F5F4F888180
:1011B0009981480F591F518340838A819B81938372
:1011C00082832115310509F0B0CFF0930204E0933A
:1011D00001049ECFFD01DC01C0CF13821282D7CF64
:1011E00010E0C2E6D0E004C0FE010E94C5072196CF
:1011F000C336D107C9F7F894FFCF01000000000003
:041200000304800063
:107E0000112484B714BE81FFF0D085E080938100F7
:107E100082E08093C00088E18093C10086E0809377
:107E2000C20080E18093C4008EE0C9D0259A86E02C
:107E300020E33CEF91E0309385002093840096BBD3
:107E4000B09BFECF1D9AA8958150A9F7CC24DD24C4
:107E500088248394B5E0AB2EA1E19A2EF3E0BF2EE7
:107E6000A2D0813461F49FD0082FAFD0023811F036
:107E7000013811F484E001C083E08DD089C08234E0
:107E800011F484E103C0853419F485E0A6D080C0E4
:107E9000853579F488D0E82EFF2485D0082F10E0AE
:107EA000102F00270E291F29000F111F8ED06801E7
:107EB0006FC0863521F484E090D080E0DECF843638
:107EC00009F040C070D06FD0082F6DD080E0C81688
:107ED00080E7D80618F4F601B7BEE895C0E0D1E017
:107EE00062D089930C17E1F7F0E0CF16F0E7DF06D8
:107EF00018F0F601B7BEE89568D007B600FCFDCFD4
:107F0000A601A0E0B1E02C9130E011968C91119780
:107F100090E0982F8827822B932B1296FA010C0160
:107F200087BEE89511244E5F5F4FF1E0A038BF0790
:107F300051F7F601A7BEE89507B600FCFDCF97BE46
:107F4000E89526C08437B1F42ED02DD0F82E2BD052
:107F50003CD0F601EF2C8F010F5F1F4F84911BD097
:107F6000EA94F801C1F70894C11CD11CFA94CF0C13
:107F7000D11C0EC0853739F428D08EE10CD085E9AC
:107F80000AD08FE07ACF813511F488E018D01DD067
:107F900080E101D065CF982F8091C00085FFFCCF94
:107FA0009093C60008958091C00087FFFCCF809118
:107FB000C00084FD01C0A8958091C6000895E0E648
:107FC000F0E098E1908380830895EDDF803219F02E
:107FD00088E0F5DFFFCF84E1DECF1F93182FE3DFCA
:107FE0001150E9F7F2DF1F91089580E0E8DFEE27F6
:047FF000FF270994CA
:027FFE00040479
:00000001FF
