:100000000C945E000C9486000C9486000C94860080
:100010000C9486000C9486000C9486000C94860048
:100020000C9486000C9486000C9486000C94860038
:100030000C9486000C9486000C9486000C94860028
:100040000C9429030C9486000C9486000C94860072
:100050000C9486000C9486000C9486000C94860008
:100060000C9486000C9486000000000024002700F9
:100070002A0000000000250028002B0004040404CE
:100080000404040402020202020203030303030342
:10009000010204081020408001020408102001021F
:1000A00004081020000000080002010000030407FB
:1000B00000000000000000009704FD0411241FBE92
:1000C000CFEFD8E0DEBFCDBF12E0A0E0B1E0E8E9BD
:1000D000FEE002C005900D92AA39B107D9F724E0DD
:1000E000AAE9B2E001C01D92A13CB207E1F710E01D
:1000F000CDE5D0E004C02197FE010E941406CC3566
:10010000D107C9F70E9473030C943F070C940000B9
:1001100090E0FC01EC55FF4F2491FC01E057FF4FAC
:100120003491FC01E458FF4FE491EE23B9F022230F
:1001300039F02330F1F098F4213009F1223019F12F
:10014000F0E0EE0FFF1FEE58FF4FA591B4918FB76F
:10015000F894EC9130953E233C938FBF089527305F
:10016000A9F02830C9F0243059F7809180008F7DA4
:1001700003C0809180008F7780938000E1CF84B5A9
:100180008F7784BDDDCF84B58F7DFBCF8091B000AC
:100190008F778093B000D4CF8091B0008F7DF9CF5E
:1001A000E091A904F091AA048E179F0798F5309169
:1001B000AF04332361F0639FB0011124672F349F94
:1001C000A0011124452F329F90011124232F30913B
:1001D000B504E091B004F091B1045091B20435132C
:1001E0001AC0DC01AA0FBB1F8A0F9B1F8E0F9F1F17
:1001F000E091B204E80FF92FF11D6083E091B304A0
:10020000E80FF92FF11D40833091B404830F911D45
:10021000FC0120830895880F991F880F991F8E0F66
:100220009F1FFC01E30FF11D1082E2CFCF93DF93FC
:1002300090E0FC01E057FF4F249184589F4FFC0150
:1002400084918823D1F090E0880F991FFC01E85930
:10025000FF4FA591B491FC01EE58FF4FC591D49189
:1002600061110EC09FB7F8948C91E22FE0958E2318
:100270008C932881E223E8839FBFDF91CF9108957B
:100280008FB7F894EC91E22BEC938FBFF6CF3FB78A
:10029000F8948091A3049091A404A091A504B09136
:1002A000A60426B5A89B05C02F3F19F00196A11DF5
:1002B000B11D3FBFBA2FA92F982F8827BC01CD01B0
:1002C000620F711D811D911D42E0660F771F881F0F
:1002D000991F4A95D1F708958F929F92AF92BF923E
:1002E000CF92DF92EF92FF924B015C010E94470197
:1002F0006B017C010E9447016C197D098E099F09E1
:10030000683E734081059105A8F321E0821A9108A7
:10031000A108B10888EEC80E83E0D81EE11CF11CCC
:1003200081149104A104B10429F7FF90EF90DF90AC
:10033000CF90BF90AF909F908F900895EF92FF92D3
:100340000F931F93CF93DF93CDB7DEB729970FB6E7
:10035000F894DEBF0FBECDBF8CE9E82E82E0F82E08
:1003600010E000E0F701819191917F0120E040E0F1
:100370008130910581F02FEF4FEF009709F4AAC06B
:1003800020E048E78230910531F08330910509F093
:100390009CC020E04FEF60E0C8010E94D0000F5FDA
:1003A0001F4F0115F1E01F07E9F68091B00490910D
:1003B000B104892B09F47CC00E9447010091B60466
:1003C0001091B7042091B8043091B90460177107F7
:1003D0008207930740F46093B6047093B704809348
:1003E000B8049093B9040091B6041091B704209119
:1003F000B8043091B904601B710B820B930B6C3203
:10040000714081059105C0F2F8948091AB04909100
:10041000AC049A838983E091B004F091B104DF01C8
:100420001196808189879091A704E091BA04F09198
:10043000BB048091BC04992309F44EC09081982B91
:1004400098879081809589238F838F818C8388E022
:100450008B8358856F8149853B812C8189819A8165
:10046000508347FD252F3A952083262F39F0441FCE
:1004700000C000006083000000C0F2CF38E04D9162
:1004800060830000019761F7F093BB04E093BA0426
:1004900049873B832C839A83898378940E94470100
:1004A0006093B6047093B7048093B8049093B90432
:1004B00029960FB6F894DEBF0FBECDBFDF91CF9166
:1004C0001F910F91FF90EF900895049709F067CF67
:1004D00020E040E06FEF60CF9081982B988790816B
:1004E000809589238F838F818E8388E08D835885C3
:1004F0006F8149853D812E8189819A81508347FD95
:10050000252F00C000C0208300C000C000C000C074
:1005100000C060830000262F3A9541F0441F000080
:1005200000C000C000C000C000C0E8CF38E04D915E
:1005300000C0608300C0019709F7F093BB04E0930B
:10054000BA0449873D832E83A6CFCF93DF93ECE98E
:10055000F2E0DF011D921D9224E0AC39B207D1F721
:10056000ACE9B2E081E090E08193919311969C9385
:100570008E935F969C938E935E97EF01C252DE4FEF
:1005800099838883909622E0EC3BF20769F783E039
:1005900090E090939B0280939A0228E630E030939B
:1005A00001012093000129E630E0309303012093FC
:1005B00002012AE630E0309305012093040122E095
:1005C00030E030936D0320936C0390936F0380931E
:1005D0006E03909371038093700384E090E0909396
:1005E0006903809368038FEF9FEF90939D0480933E
:1005F0009C04DF91CF910895CF92DF92EF92FF920A
:10060000CF93DF93C6EBD6E09EEDC92ED12CE12C23
:10061000F12C2097B9F00E945905A70196010E947C
:10062000B1056F5E7F4F8F4F9F4F660F771FFB01A6
:10063000E456FD4F80819181892B59F784E090E049
:1006400091838083DF91CF91FF90EF90DF90CF90E7
:1006500008951F920F920FB60F9211242F933F937C
:100660008F939F93AF93BF9380919F049091A00429
:10067000A091A104B091A20430919E0423E0230F25
:100680002D3758F50196A11DB11D20939E0480932E
:100690009F049093A004A093A104B093A20480911E
:1006A000A3049091A404A091A504B091A60401967E
:1006B000A11DB11D8093A3049093A404A093A5044D
:1006C000B093A604BF91AF919F918F913F912F91CD
:1006D0000F900FBE0F901F90189526E8230F0296DB
:1006E000A11DB11DD2CF789484B5826084BD84B53C
:1006F000816084BD85B5826085BD85B5816085BD1D
:1007000080916E00816080936E00109281008091D4
:10071000810082608093810080918100816080935C
:100720008100809180008160809380008091B10081
:1007300084608093B1008091B00081608093B000AC
:1007400080917A00846080937A0080917A00826040
:1007500080937A0080917A00816080937A00809102
:100760007A00806880937A001092C1000E94A502EE
:100770002091AF04222341F1C091B004D091B10483
:100780002150E9F030E050E040E06FEF7FEF80E093
:1007900090E00E94B105FE014091AB045091AC0481
:1007A000CF018C1B9D0B8417950760F44081429FFD
:1007B000C001439F900D112490833196EDCF30E01E
:1007C00020E0E9CF1092AF048091AD049091AE0487
:1007D00097FD07C061E00E9416018091AD040E9460
:1007E000880081E08093A8040E949E0173E0E72EB8
:1007F000F12CE2E0CE2ED12C00E010E00E949E0110
:1008000062E370E080E090E00E946C0140919C0403
:1008100050919D044115510509F47CC0C09100011F
:10082000D0910101C40FD51FCC0FDD1FFE01E4568E
:10083000FD4F808191819C012D7F2130310509F090
:1008400043C064EF71E080E090E00E946C010E9480
:10085000A5020E949E0164EF71E080E090E00E949A
:100860006C0160919A0270919B0240919C0450919E
:100870009D04E0E0F1E030E020E0261737070CF0BF
:1008800041C081919191DC01AA0FBB1FA456BD4FBD
:100890001D921C92840F951FDF0112978D939C93DC
:1008A000880F991FDC01A456BD4FED92FC92A091D8
:1008B0000001B0910101AA0FBB1FA456BD4FCD92FC
:1008C000DC922F5F3F4FD9CF049759F680919A025F
:1008D00090919B02FC01EE0FFF1FE050FF4FDC01E7
:1008E000AA0FBB1FA250BF4F2D913C91241B350B6B
:1008F00031832083019690939B0280939A020E94F9
:10090000FC02AFCFC456DD4F88819981049711F462
:100910000E94FC0262E370E080E090E00E946C01C3
:100920000115110509F46ACF0E94000067CFCF932B
:10093000DF931092A8041092AF041092B6041092A4
:10094000B7041092B8041092B90481E08093B50402
:100950008093B2041092B30492E09093B404809315
:10096000A704C0E0D3E0D093AC04C093AB0480E014
:1009700093E00E941A069093B1048093B00400970C
:1009800099F1FC019E01119221503040E1F780E085
:1009900091E09093AA048093A90482E090E0909360
:1009A000AE048093AD048091A804882339F061E0FF
:1009B00082E00E94160182E00E948800EEE7F0E0EB
:1009C000E491F0E0EE0FFF1FEE58FF4F85919491F8
:1009D0009093BB048093BA04E2E9F0E0E491E093E1
:1009E000BC04DF91CF9108951092AC041092AB0437
:1009F0001092AA041092A904D0CF8091B0049091D3
:100A0000B1040E94B6068091AD049091AE0497FDAA
:100A100003C060E00C94160108958F929F92AF92EC
:100A2000BF92CF92DF92EF92FF92CF93DF93EC01D0
:100A3000688179818A819B816115710581059105A4
:100A400021F464E279ED8BE597E02DE133EF41E0AD
:100A500050E00E94B10549015A019B01AC01A7EA8F
:100A6000B1E40E94D0056B017C01ACEEB4EFA501AE
:100A700094010E94DE05C60ED71EE81EF91EF7FE81
:100A800006C081E0C81AD108E10880E8F80AC882E7
:100A9000D982EA82FB82C701B6019F77DF91CF91AD
:100AA000FF90EF90DF90CF90BF90AF909F908F908E
:100AB00008958F929F92AF92BF92CF92DF92EF9262
:100AC000FF926091900270919102809192029091B8
:100AD0009302611571058105910521F464E279EDB8
:100AE0008BE597E02DE133EF41E050E00E94B10546
:100AF00049015A019B01AC01A7EAB1E40E94D0056B
:100B00006B017C01ACEEB4EFA50194010E94DE05FF
:100B1000C60ED71EE81EF91EF7FE06C081E0C81AF1
:100B2000D108E10880E8F80AC0929002D0929102C0
:100B3000E0929202F0929302C701B6019F77FF9074
:100B4000EF90DF90CF90BF90AF909F908F900895DF
:100B5000609390027093910280939202909393021B
:100B60000895052E97FB1EF400940E94C80557FDBA
:100B700007D00E94E30507FC03D04EF40C94C8058F
:100B800050954095309521953F4F4F4F5F4F0895B9
:100B900090958095709561957F4F8F4F9F4F0895E9
:100BA0000E940506A59F900DB49F900DA49F800DF7
:100BB000911D11240895B7FF0C94D0050E94D00513
:100BC000821B930B0895A1E21A2EAA1BBB1BFD01E9
:100BD0000DC0AA1FBB1FEE1FFF1FA217B307E4071C
:100BE000F50720F0A21BB30BE40BF50B661F771F74
:100BF000881F991F1A9469F7609570958095909554
:100C00009B01AC01BD01CF010895A29FB001B39F2C
:100C1000C001A39F700D811D1124911DB29F700D05
:100C2000811D1124911D0895EE0FFF1F0590F49171
:100C3000E02D09940F931F93CF93DF93823091059A
:100C400010F482E090E0E091BF04F091C00430E045
:100C500020E0B0E0A0E0309799F42115310509F4C7
:100C60004AC0281B390B24303105D8F58A819B8175
:100C70006115710589F1FB0193838283FE0111C027
:100C8000408151810281138148175907E0F04817CC
:100C9000590799F4109761F012960C9312971396D6
:100CA0001C933296CF01DF91CF911F910F91089540
:100CB0000093BF041093C004F4CF2115310551F007
:100CC0004217530738F0A901DB019A01BD01DF018A
:100CD000F801C1CFEF01F9CF9093C0048093BF0416
:100CE000CDCFFE01E20FF31F819391932250310982
:100CF00039832883D7CF2091BD043091BE04232BA4
:100D000041F420919602309197023093BE042093D3
:100D1000BD0420919402309195022115310541F4D2
:100D20002DB73EB74091980250919902241B350B84
:100D3000E091BD04F091BE04E217F307A0F42E1B6E
:100D40003F0B2817390778F0AC014E5F5F4F24172F
:100D5000350748F04E0F5F1F5093BE044093BD040B
:100D6000819391939FCFF0E0E0E09CCFCF93DF930E
:100D70000097E9F0FC01329713821282A091BF0420
:100D8000B091C004ED0130E020E01097A1F4208183
:100D90003181820F931F2091BD043091BE0428172A
:100DA000390709F061C0F093BE04E093BD04DF9100
:100DB000CF910895EA01CE17DF07E8F54A815B81FC
:100DC0009E0141155105B1F7E901FB83EA83499181
:100DD0005991C40FD51FEC17FD0761F480819181F3
:100DE0000296840F951FE9019983888382819381FC
:100DF0009B838A83F0E0E0E012968D919C9113979B
:100E00000097B9F52D913C911197CD010296820F73
:100E1000931F2091BD043091BE042817390739F67D
:100E2000309751F51092C0041092BF04B093BE04E5
:100E3000A093BD04BCCFD383C28340815181840F72
:100E4000951FC817D90761F44E5F5F4F888199815C
:100E5000480F591F518340838A819B8193838283EA
:100E60002115310509F0B0CFF093C004E093BF0421
:100E70009ECFFD01DC01C0CF13821282D7CF10E0DC
:100E8000CDE5D0E004C0FE010E9414062196CE35C7
:080E9000D107C9F7F894FFCF68
:100E9800680069006A00000000000000000000000F
:100EA800000000000000000000000000000000003A
:100EB800000000000000000000000000000000002A
:100EC800000000000000000000000000000000001A
:100ED800000000000000000000000000000000000A
:100EE80000000000000000000000000000000000FA
:100EF80000000000000000000000000000000000EA
:100F080000000000000000000000000000000000D9
:100F180000000000000000000000000000000000C9
:100F280000000000000000000000000000000000B9
:100F380000000000000000000000000000000000A9
:100F48000000000000000000000000000000000099
:100F58000000000000000000000000000000000089
:100F68000000000000000000000000000000000079
:100F78000000000000000000000000000000000069
:100F88000000000000000000000000000000000059
:100F98000000000000000000000000000000000049
:100FA8000000000000000000000000000000000039
:100FB8000000000000000000000000000000000029
:100FC8000000000000000000000000000000000019
:100FD8000000000000000000000000000000000009
:100FE80000000000000000000000000000000000F9
:100FF80000000000000000000000000000000000E9
:1010080000000000000000000000000000000000D8
:1010180000000000000000000000000000000000C8
:0A102800010000000000C104800078
:00000001FF
